{
  "_format": "hh-sol-artifact-1",
  "contractName": "Market",
  "sourceName": "contracts/Market.sol",
  "abi": [
    {
      "inputs": [],
      "stateMutability": "payable",
      "type": "constructor"
    },
    {
      "anonymous": false,
      "inputs": [
        {
          "indexed": true,
          "internalType": "address",
          "name": "user",
          "type": "address"
        },
        {
          "indexed": false,
          "internalType": "string",
          "name": "foodID",
          "type": "string"
        },
        {
          "indexed": false,
          "internalType": "uint256",
          "name": "date",
          "type": "uint256"
        },
        {
          "indexed": false,
          "internalType": "uint256",
          "name": "tokenId",
          "type": "uint256"
        }
      ],
      "name": "EventBoughtFood",
      "type": "event"
    },
    {
      "anonymous": false,
      "inputs": [
        {
          "indexed": true,
          "internalType": "address",
          "name": "user",
          "type": "address"
        },
        {
          "indexed": true,
          "internalType": "address",
          "name": "receiver",
          "type": "address"
        },
        {
          "indexed": false,
          "internalType": "string",
          "name": "foodID",
          "type": "string"
        },
        {
          "indexed": false,
          "internalType": "uint256",
          "name": "date",
          "type": "uint256"
        },
        {
          "indexed": false,
          "internalType": "uint256",
          "name": "tokenId",
          "type": "uint256"
        }
      ],
      "name": "EventGiftFood",
      "type": "event"
    },
    {
      "anonymous": false,
      "inputs": [
        {
          "indexed": true,
          "internalType": "address",
          "name": "user",
          "type": "address"
        },
        {
          "indexed": false,
          "internalType": "string",
          "name": "foodID",
          "type": "string"
        },
        {
          "indexed": false,
          "internalType": "uint256",
          "name": "date",
          "type": "uint256"
        },
        {
          "indexed": false,
          "internalType": "uint256",
          "name": "tokenId",
          "type": "uint256"
        }
      ],
      "name": "EventRedeemFood",
      "type": "event"
    },
    {
      "inputs": [
        {
          "internalType": "string",
          "name": "foodID",
          "type": "string"
        }
      ],
      "name": "buy",
      "outputs": [
        {
          "internalType": "uint256",
          "name": "",
          "type": "uint256"
        }
      ],
      "stateMutability": "payable",
      "type": "function"
    },
    {
      "inputs": [
        {
          "internalType": "string",
          "name": "",
          "type": "string"
        }
      ],
      "name": "foods",
      "outputs": [
        {
          "internalType": "string",
          "name": "foodID",
          "type": "string"
        },
        {
          "internalType": "uint256",
          "name": "price",
          "type": "uint256"
        },
        {
          "internalType": "uint256",
          "name": "stocks",
          "type": "uint256"
        }
      ],
      "stateMutability": "view",
      "type": "function"
    },
    {
      "inputs": [],
      "name": "getCustomerMommomsToken",
      "outputs": [],
      "stateMutability": "nonpayable",
      "type": "function"
    },
    {
      "inputs": [
        {
          "internalType": "uint256",
          "name": "tokenID",
          "type": "uint256"
        }
      ],
      "name": "getFoodID",
      "outputs": [
        {
          "internalType": "string",
          "name": "",
          "type": "string"
        }
      ],
      "stateMutability": "view",
      "type": "function"
    },
    {
      "inputs": [],
      "name": "getLastTokenList",
      "outputs": [
        {
          "internalType": "uint256[]",
          "name": "",
          "type": "uint256[]"
        }
      ],
      "stateMutability": "view",
      "type": "function"
    },
    {
      "inputs": [
        {
          "internalType": "address",
          "name": "receiver",
          "type": "address"
        },
        {
          "internalType": "uint256",
          "name": "tokenID",
          "type": "uint256"
        }
      ],
      "name": "gift",
      "outputs": [],
      "stateMutability": "nonpayable",
      "type": "function"
    },
    {
      "inputs": [
        {
          "internalType": "address",
          "name": "",
          "type": "address"
        }
      ],
      "name": "lastTokenID",
      "outputs": [
        {
          "internalType": "uint256",
          "name": "",
          "type": "uint256"
        }
      ],
      "stateMutability": "view",
      "type": "function"
    },
    {
      "inputs": [
        {
          "internalType": "address",
          "name": "",
          "type": "address"
        },
        {
          "internalType": "uint256",
          "name": "",
          "type": "uint256"
        }
      ],
      "name": "lastTokenList",
      "outputs": [
        {
          "internalType": "uint256",
          "name": "",
          "type": "uint256"
        }
      ],
      "stateMutability": "view",
      "type": "function"
    },
    {
      "inputs": [
        {
          "internalType": "string",
          "name": "_foodID",
          "type": "string"
        },
        {
          "internalType": "uint256",
          "name": "_stocks",
          "type": "uint256"
        },
        {
          "internalType": "uint256",
          "name": "_price",
          "type": "uint256"
        }
      ],
      "name": "list",
      "outputs": [],
      "stateMutability": "nonpayable",
      "type": "function"
    },
    {
      "inputs": [],
      "name": "mommom",
      "outputs": [
        {
          "internalType": "contract Mommom",
          "name": "",
          "type": "address"
        }
      ],
      "stateMutability": "view",
      "type": "function"
    },
    {
      "inputs": [
        {
          "internalType": "uint256",
          "name": "tokenID",
          "type": "uint256"
        }
      ],
      "name": "redeem",
      "outputs": [],
      "stateMutability": "nonpayable",
      "type": "function"
    },
    {
      "inputs": [
        {
          "internalType": "string",
          "name": "name",
          "type": "string"
        },
        {
          "internalType": "string",
          "name": "symbol",
          "type": "string"
        }
      ],
      "name": "rewarded",
      "outputs": [
        {
          "internalType": "address",
          "name": "",
          "type": "address"
        }
      ],
      "stateMutability": "nonpayable",
      "type": "function"
    }
  ],
  "bytecode": "0x6080604052604051610010906100b2565b604051809103906000f08015801561002c573d6000803e3d6000fd5b50600160006101000a81548173ffffffffffffffffffffffffffffffffffffffff021916908373ffffffffffffffffffffffffffffffffffffffff160217905550336000806101000a81548173ffffffffffffffffffffffffffffffffffffffff021916908373ffffffffffffffffffffffffffffffffffffffff1602179055506100c0565b6138cf806200486783390190565b61479780620000d06000396000f3fe608060405260043610620000b65760003560e01c8063912f3095116200006d578063912f309514620001f557806399a18b2a1462000223578063a9f916991462000267578063cbce4c9714620002ab578063db006a7514620002d9578063e8ee2f2b146200030757620000b6565b806308ec540814620000bb57806318ef08c914620000d55780632335dc0e14620001055780632a3bc5371462000149578063492cc769146200018f5780634acc061e14620001c5575b600080fd5b348015620000c857600080fd5b50620000d36200034b565b005b348015620000e257600080fd5b50620000ed620003df565b604051620000fc919062001885565b60405180910390f35b3480156200011257600080fd5b506200013160048036038101906200012b9190620014c5565b62000405565b604051620001409190620017a6565b60405180910390f35b3480156200015657600080fd5b506200017560048036038101906200016f91906200143b565b620004e1565b604051620001869392919062001901565b60405180910390f35b620001ad6004803603810190620001a791906200143b565b620005b1565b604051620001bc919062001989565b60405180910390f35b348015620001d257600080fd5b50620001dd620008b1565b604051620001ec919062001861565b60405180910390f35b3480156200020257600080fd5b506200022160048036038101906200021b919062001538565b62000948565b005b3480156200023057600080fd5b506200024f6004803603810190620002499190620013fa565b620009c4565b6040516200025e919062001989565b60405180910390f35b3480156200027457600080fd5b506200029360048036038101906200028d9190620013ce565b620009f6565b604051620002a2919062001989565b60405180910390f35b348015620002b857600080fd5b50620002d76004803603810190620002d19190620013fa565b62000a0e565b005b348015620002e657600080fd5b50620003056004803603810190620002ff9190620015a7565b62000c4c565b005b3480156200031457600080fd5b506200033360048036038101906200032d9190620015a7565b62000e6b565b604051620003429190620018a2565b60405180910390f35b600660003373ffffffffffffffffffffffffffffffffffffffff1673ffffffffffffffffffffffffffffffffffffffff168152602001908152602001600020600101600360003373ffffffffffffffffffffffffffffffffffffffff1673ffffffffffffffffffffffffffffffffffffffff168152602001908152602001600020908054620003dc92919062001190565b50565b600160009054906101000a900473ffffffffffffffffffffffffffffffffffffffff1681565b60008083836040516200041890620011e7565b62000425929190620018c6565b604051809103906000f08015801562000442573d6000803e3d6000fd5b5090508073ffffffffffffffffffffffffffffffffffffffff1663379f53e3336040518263ffffffff1660e01b8152600401620004809190620017a6565b602060405180830381600087803b1580156200049b57600080fd5b505af1158015620004b0573d6000803e3d6000fd5b505050506040513d601f19601f82011682018060405250810190620004d69190620015d3565b508091505092915050565b6005818051602081018201805184825260208301602085012081835280955050505050506000915090508060000180546200051c9062001b4b565b80601f01602080910402602001604051908101604052809291908181526020018280546200054a9062001b4b565b80156200059b5780601f106200056f576101008083540402835291602001916200059b565b820191906000526020600020905b8154815290600101906020018083116200057d57829003601f168201915b5050505050908060010154908060020154905083565b600080600583604051620005c691906200178d565b90815260200160405180910390209050806001015434101562000620576040517f08c379a0000000000000000000000000000000000000000000000000000000008152600401620006179062001967565b60405180910390fd5b60008160020154116200066a576040517f08c379a0000000000000000000000000000000000000000000000000000000008152600401620006619062001945565b60405180910390fd5b6000600160009054906101000a900473ffffffffffffffffffffffffffffffffffffffff1673ffffffffffffffffffffffffffffffffffffffff16638345183833866040518363ffffffff1660e01b8152600401620006cb92919062001800565b602060405180830381600087803b158015620006e657600080fd5b505af1158015620006fb573d6000803e3d6000fd5b505050506040513d601f19601f82011682018060405250810190620007219190620015d3565b90506001826002015462000736919062001a65565b82600201819055506000604051806040016040528083815260200160001515815250905080600460008481526020019081526020016000206000820151816000015560208201518160010160006101000a81548160ff021916908315150217905550905050600660003373ffffffffffffffffffffffffffffffffffffffff1673ffffffffffffffffffffffffffffffffffffffff1681526020019081526020016000206001018290806001815401808255809150506001900390600052602060002001600090919091909150553373ffffffffffffffffffffffffffffffffffffffff167f85b569e10f6720e020936212fe1eea61f896a009714496ad76a3ff29206fe04b864285604051620008509392919062001901565b60405180910390a281600260003373ffffffffffffffffffffffffffffffffffffffff1673ffffffffffffffffffffffffffffffffffffffff16815260200190815260200160002081905550620008a66200034b565b819350505050919050565b6060600360003373ffffffffffffffffffffffffffffffffffffffff1673ffffffffffffffffffffffffffffffffffffffff1681526020019081526020016000208054806020026020016040519081016040528092919081815260200182805480156200093e57602002820191906000526020600020905b81548152602001906001019080831162000929575b5050505050905090565b60006040518060600160405280858152602001838152602001848152509050806005856040516200097a91906200178d565b90815260200160405180910390206000820151816000019080519060200190620009a6929190620011f5565b50602082015181600101556040820151816002015590505050505050565b60036020528160005260406000208181548110620009e157600080fd5b90600052602060002001600091509150505481565b60026020528060005260406000206000915090505481565b62000a1a338262000f2a565b600160009054906101000a900473ffffffffffffffffffffffffffffffffffffffff1673ffffffffffffffffffffffffffffffffffffffff166395dbee2d3384846040518463ffffffff1660e01b815260040162000a7b93929190620017c3565b600060405180830381600087803b15801562000a9657600080fd5b505af115801562000aab573d6000803e3d6000fd5b50505050600660008373ffffffffffffffffffffffffffffffffffffffff1673ffffffffffffffffffffffffffffffffffffffff1681526020019081526020016000206001018190806001815401808255809150506001900390600052602060002001600090919091909150556000600160009054906101000a900473ffffffffffffffffffffffffffffffffffffffff1673ffffffffffffffffffffffffffffffffffffffff1663c87b56dd836040518263ffffffff1660e01b815260040162000b77919062001989565b60006040518083038186803b15801562000b9057600080fd5b505afa15801562000ba5573d6000803e3d6000fd5b505050506040513d6000823e3d601f19601f8201168201806040525081019062000bd0919062001480565b905062000bdc6200034b565b8273ffffffffffffffffffffffffffffffffffffffff163373ffffffffffffffffffffffffffffffffffffffff167f44361683fbdd5acdd712e06dab66935d0f56f274249ff50740cf080a0294423e83428660405162000c3f9392919062001901565b60405180910390a3505050565b600015156004600083815260200190815260200160002060010160009054906101000a900460ff1615151462000c8157600080fd5b62000c8d338262000f2a565b600160009054906101000a900473ffffffffffffffffffffffffffffffffffffffff1673ffffffffffffffffffffffffffffffffffffffff16631e9a695033836040518363ffffffff1660e01b815260040162000cec92919062001834565b600060405180830381600087803b15801562000d0757600080fd5b505af115801562000d1c573d6000803e3d6000fd5b5050505060016004600083815260200190815260200160002060010160006101000a81548160ff0219169083151502179055506000600160009054906101000a900473ffffffffffffffffffffffffffffffffffffffff1673ffffffffffffffffffffffffffffffffffffffff1663c87b56dd836040518263ffffffff1660e01b815260040162000dae919062001989565b60006040518083038186803b15801562000dc757600080fd5b505afa15801562000ddc573d6000803e3d6000fd5b505050506040513d6000823e3d601f19601f8201168201806040525081019062000e07919062001480565b905062000e136200034b565b3373ffffffffffffffffffffffffffffffffffffffff167f699426816511f666da88e47993a36f5bd155551818271fd39a2831b3db7f7a8582428560405162000e5f9392919062001901565b60405180910390a25050565b6060600160009054906101000a900473ffffffffffffffffffffffffffffffffffffffff1673ffffffffffffffffffffffffffffffffffffffff1663c87b56dd836040518263ffffffff1660e01b815260040162000eca919062001989565b60006040518083038186803b15801562000ee357600080fd5b505afa15801562000ef8573d6000803e3d6000fd5b505050506040513d6000823e3d601f19601f8201168201806040525081019062000f23919062001480565b9050919050565b6000600160009054906101000a900473ffffffffffffffffffffffffffffffffffffffff1673ffffffffffffffffffffffffffffffffffffffff166370a08231336040518263ffffffff1660e01b815260040162000f899190620017a6565b60206040518083038186803b15801562000fa257600080fd5b505afa15801562000fb7573d6000803e3d6000fd5b505050506040513d601f19601f8201168201806040525081019062000fdd9190620015d3565b90506000600660008573ffffffffffffffffffffffffffffffffffffffff1673ffffffffffffffffffffffffffffffffffffffff1681526020019081526020016000209050600081600101905060005b8381101562001188578482828154811062001071577f4e487b7100000000000000000000000000000000000000000000000000000000600052603260045260246000fd5b9060005260206000200154141562001172578160018562001093919062001a65565b81548110620010cb577f4e487b7100000000000000000000000000000000000000000000000000000000600052603260045260246000fd5b906000526020600020015482828154811062001110577f4e487b7100000000000000000000000000000000000000000000000000000000600052603260045260246000fd5b90600052602060002001819055508180548062001156577f4e487b7100000000000000000000000000000000000000000000000000000000600052603160045260246000fd5b6001900381819060005260206000200160009055905562001188565b80806200117f9062001bb7565b9150506200102d565b505050505050565b828054828255906000526020600020908101928215620011d45760005260206000209182015b82811115620011d3578254825591600101919060010190620011b6565b5b509050620011e3919062001286565b5090565b612a388062001d2a83390190565b828054620012039062001b4b565b90600052602060002090601f01602090048101928262001227576000855562001273565b82601f106200124257805160ff191683800117855562001273565b8280016001018555821562001273579182015b828111156200127257825182559160200191906001019062001255565b5b50905062001282919062001286565b5090565b5b80821115620012a157600081600090555060010162001287565b5090565b6000620012bc620012b684620019cf565b620019a6565b905082815260208101848484011115620012d557600080fd5b620012e284828562001b06565b509392505050565b600062001301620012fb84620019cf565b620019a6565b9050828152602081018484840111156200131a57600080fd5b6200132784828562001b15565b509392505050565b600081359050620013408162001cf5565b92915050565b600082601f8301126200135857600080fd5b81356200136a848260208601620012a5565b91505092915050565b600082601f8301126200138557600080fd5b815162001397848260208601620012ea565b91505092915050565b600081359050620013b18162001d0f565b92915050565b600081519050620013c88162001d0f565b92915050565b600060208284031215620013e157600080fd5b6000620013f1848285016200132f565b91505092915050565b600080604083850312156200140e57600080fd5b60006200141e858286016200132f565b92505060206200143185828601620013a0565b9150509250929050565b6000602082840312156200144e57600080fd5b600082013567ffffffffffffffff8111156200146957600080fd5b620014778482850162001346565b91505092915050565b6000602082840312156200149357600080fd5b600082015167ffffffffffffffff811115620014ae57600080fd5b620014bc8482850162001373565b91505092915050565b60008060408385031215620014d957600080fd5b600083013567ffffffffffffffff811115620014f457600080fd5b620015028582860162001346565b925050602083013567ffffffffffffffff8111156200152057600080fd5b6200152e8582860162001346565b9150509250929050565b6000806000606084860312156200154e57600080fd5b600084013567ffffffffffffffff8111156200156957600080fd5b620015778682870162001346565b93505060206200158a86828701620013a0565b92505060406200159d86828701620013a0565b9150509250925092565b600060208284031215620015ba57600080fd5b6000620015ca84828501620013a0565b91505092915050565b600060208284031215620015e657600080fd5b6000620015f684828501620013b7565b91505092915050565b60006200160d83836200176b565b60208301905092915050565b620016248162001aa0565b82525050565b6000620016378262001a15565b62001643818562001a38565b9350620016508362001a05565b8060005b83811015620016875781516200166b8882620015ff565b9750620016788362001a2b565b92505060018101905062001654565b5085935050505092915050565b6200169f8162001ade565b82525050565b6000620016b28262001a20565b620016be818562001a49565b9350620016d081856020860162001b15565b620016db8162001c92565b840191505092915050565b6000620016f38262001a20565b620016ff818562001a5a565b93506200171181856020860162001b15565b80840191505092915050565b60006200172c60138362001a49565b9150620017398262001ca3565b602082019050919050565b60006200175360128362001a49565b9150620017608262001ccc565b602082019050919050565b620017768162001ad4565b82525050565b620017878162001ad4565b82525050565b60006200179b8284620016e6565b915081905092915050565b6000602082019050620017bd600083018462001619565b92915050565b6000606082019050620017da600083018662001619565b620017e9602083018562001619565b620017f860408301846200177c565b949350505050565b600060408201905062001817600083018562001619565b81810360208301526200182b8184620016a5565b90509392505050565b60006040820190506200184b600083018562001619565b6200185a60208301846200177c565b9392505050565b600060208201905081810360008301526200187d81846200162a565b905092915050565b60006020820190506200189c600083018462001694565b92915050565b60006020820190508181036000830152620018be8184620016a5565b905092915050565b60006040820190508181036000830152620018e28185620016a5565b90508181036020830152620018f88184620016a5565b90509392505050565b600060608201905081810360008301526200191d8186620016a5565b90506200192e60208301856200177c565b6200193d60408301846200177c565b949350505050565b6000602082019050818103600083015262001960816200171d565b9050919050565b60006020820190508181036000830152620019828162001744565b9050919050565b6000602082019050620019a060008301846200177c565b92915050565b6000620019b2620019c5565b9050620019c0828262001b81565b919050565b6000604051905090565b600067ffffffffffffffff821115620019ed57620019ec62001c63565b5b620019f88262001c92565b9050602081019050919050565b6000819050602082019050919050565b600081519050919050565b600081519050919050565b6000602082019050919050565b600082825260208201905092915050565b600082825260208201905092915050565b600081905092915050565b600062001a728262001ad4565b915062001a7f8362001ad4565b92508282101562001a955762001a9462001c05565b5b828203905092915050565b600062001aad8262001ab4565b9050919050565b600073ffffffffffffffffffffffffffffffffffffffff82169050919050565b6000819050919050565b600062001aeb8262001af2565b9050919050565b600062001aff8262001ab4565b9050919050565b82818337600083830152505050565b60005b8381101562001b3557808201518184015260208101905062001b18565b8381111562001b45576000848401525b50505050565b6000600282049050600182168062001b6457607f821691505b6020821081141562001b7b5762001b7a62001c34565b5b50919050565b62001b8c8262001c92565b810181811067ffffffffffffffff8211171562001bae5762001bad62001c63565b5b80604052505050565b600062001bc48262001ad4565b91507fffffffffffffffffffffffffffffffffffffffffffffffffffffffffffffffff82141562001bfa5762001bf962001c05565b5b600182019050919050565b7f4e487b7100000000000000000000000000000000000000000000000000000000600052601160045260246000fd5b7f4e487b7100000000000000000000000000000000000000000000000000000000600052602260045260246000fd5b7f4e487b7100000000000000000000000000000000000000000000000000000000600052604160045260246000fd5b6000601f19601f8301169050919050565b7f496e73756666696369656e742073746f636b7300000000000000000000000000600082015250565b7f496e73756666696369656e74206d6f6e65790000000000000000000000000000600082015250565b62001d008162001aa0565b811462001d0c57600080fd5b50565b62001d1a8162001ad4565b811462001d2657600080fd5b5056fe60806040523480156200001157600080fd5b5060405162002a3838038062002a38833981810160405281019062000037919062000197565b818181600090805190602001906200005192919062000075565b5080600190805190602001906200006a92919062000075565b50505050506200037a565b82805462000083906200029f565b90600052602060002090601f016020900481019282620000a75760008555620000f3565b82601f10620000c257805160ff1916838001178555620000f3565b82800160010185558215620000f3579182015b82811115620000f2578251825591602001919060010190620000d5565b5b50905062000102919062000106565b5090565b5b808211156200012157600081600090555060010162000107565b5090565b60006200013c620001368462000233565b6200020a565b9050828152602081018484840111156200015557600080fd5b6200016284828562000269565b509392505050565b600082601f8301126200017c57600080fd5b81516200018e84826020860162000125565b91505092915050565b60008060408385031215620001ab57600080fd5b600083015167ffffffffffffffff811115620001c657600080fd5b620001d4858286016200016a565b925050602083015167ffffffffffffffff811115620001f257600080fd5b62000200858286016200016a565b9150509250929050565b60006200021662000229565b9050620002248282620002d5565b919050565b6000604051905090565b600067ffffffffffffffff8211156200025157620002506200033a565b5b6200025c8262000369565b9050602081019050919050565b60005b83811015620002895780820151818401526020810190506200026c565b8381111562000299576000848401525b50505050565b60006002820490506001821680620002b857607f821691505b60208210811415620002cf57620002ce6200030b565b5b50919050565b620002e08262000369565b810181811067ffffffffffffffff821117156200030257620003016200033a565b5b80604052505050565b7f4e487b7100000000000000000000000000000000000000000000000000000000600052602260045260246000fd5b7f4e487b7100000000000000000000000000000000000000000000000000000000600052604160045260246000fd5b6000601f19601f8301169050919050565b6126ae806200038a6000396000f3fe608060405234801561001057600080fd5b50600436106100ea5760003560e01c80636352211e1161008c578063a22cb46511610066578063a22cb4651461026f578063b88d4fde1461028b578063c87b56dd146102a7578063e985e9c5146102d7576100ea565b80636352211e146101f157806370a082311461022157806395d89b4114610251576100ea565b8063095ea7b3116100c8578063095ea7b31461016d57806323b872dd14610189578063379f53e3146101a557806342842e0e146101d5576100ea565b806301ffc9a7146100ef57806306fdde031461011f578063081812fc1461013d575b600080fd5b610109600480360381019061010491906118b0565b610307565b6040516101169190611c70565b60405180910390f35b6101276103e9565b6040516101349190611c8b565b60405180910390f35b61015760048036038101906101529190611902565b61047b565b6040516101649190611c09565b60405180910390f35b61018760048036038101906101829190611874565b610500565b005b6101a3600480360381019061019e919061176e565b610618565b005b6101bf60048036038101906101ba9190611709565b610678565b6040516101cc9190611e6d565b60405180910390f35b6101ef60048036038101906101ea919061176e565b61068e565b005b61020b60048036038101906102069190611902565b6106ae565b6040516102189190611c09565b60405180910390f35b61023b60048036038101906102369190611709565b610760565b6040516102489190611e6d565b60405180910390f35b610259610818565b6040516102669190611c8b565b60405180910390f35b61028960048036038101906102849190611838565b6108aa565b005b6102a560048036038101906102a091906117bd565b6108c0565b005b6102c160048036038101906102bc9190611902565b610922565b6040516102ce9190611c8b565b60405180910390f35b6102f160048036038101906102ec9190611732565b6109c9565b6040516102fe9190611c70565b60405180910390f35b60007f80ac58cd000000000000000000000000000000000000000000000000000000007bffffffffffffffffffffffffffffffffffffffffffffffffffffffff1916827bffffffffffffffffffffffffffffffffffffffffffffffffffffffff191614806103d257507f5b5e139f000000000000000000000000000000000000000000000000000000007bffffffffffffffffffffffffffffffffffffffffffffffffffffffff1916827bffffffffffffffffffffffffffffffffffffffffffffffffffffffff1916145b806103e257506103e182610a5d565b5b9050919050565b6060600080546103f890612092565b80601f016020809104026020016040519081016040528092919081815260200182805461042490612092565b80156104715780601f1061044657610100808354040283529160200191610471565b820191906000526020600020905b81548152906001019060200180831161045457829003601f168201915b5050505050905090565b600061048682610ac7565b6104c5576040517f08c379a00000000000000000000000000000000000000000000000000000000081526004016104bc90611dcd565b60405180910390fd5b6004600083815260200190815260200160002060009054906101000a900473ffffffffffffffffffffffffffffffffffffffff169050919050565b600061050b826106ae565b90508073ffffffffffffffffffffffffffffffffffffffff168373ffffffffffffffffffffffffffffffffffffffff16141561057c576040517f08c379a000000000000000000000000000000000000000000000000000000000815260040161057390611e2d565b60405180910390fd5b8073ffffffffffffffffffffffffffffffffffffffff1661059b610b33565b73ffffffffffffffffffffffffffffffffffffffff1614806105ca57506105c9816105c4610b33565b6109c9565b5b610609576040517f08c379a000000000000000000000000000000000000000000000000000000000815260040161060090611d4d565b60405180910390fd5b6106138383610b3b565b505050565b610629610623610b33565b82610bf4565b610668576040517f08c379a000000000000000000000000000000000000000000000000000000000815260040161065f90611e4d565b60405180910390fd5b610673838383610cd2565b505050565b6000610685826001610f2e565b60019050919050565b6106a9838383604051806020016040528060008152506108c0565b505050565b6000806002600084815260200190815260200160002060009054906101000a900473ffffffffffffffffffffffffffffffffffffffff169050600073ffffffffffffffffffffffffffffffffffffffff168173ffffffffffffffffffffffffffffffffffffffff161415610757576040517f08c379a000000000000000000000000000000000000000000000000000000000815260040161074e90611d8d565b60405180910390fd5b80915050919050565b60008073ffffffffffffffffffffffffffffffffffffffff168273ffffffffffffffffffffffffffffffffffffffff1614156107d1576040517f08c379a00000000000000000000000000000000000000000000000000000000081526004016107c890611d6d565b60405180910390fd5b600360008373ffffffffffffffffffffffffffffffffffffffff1673ffffffffffffffffffffffffffffffffffffffff168152602001908152602001600020549050919050565b60606001805461082790612092565b80601f016020809104026020016040519081016040528092919081815260200182805461085390612092565b80156108a05780601f10610875576101008083540402835291602001916108a0565b820191906000526020600020905b81548152906001019060200180831161088357829003601f168201915b5050505050905090565b6108bc6108b5610b33565b83836110fc565b5050565b6108d16108cb610b33565b83610bf4565b610910576040517f08c379a000000000000000000000000000000000000000000000000000000000815260040161090790611e4d565b60405180910390fd5b61091c84848484611269565b50505050565b606061092d82610ac7565b61096c576040517f08c379a000000000000000000000000000000000000000000000000000000000815260040161096390611e0d565b60405180910390fd5b60006109766112c5565b9050600081511161099657604051806020016040528060008152506109c1565b806109a0846112dc565b6040516020016109b1929190611be5565b6040516020818303038152906040525b915050919050565b6000600560008473ffffffffffffffffffffffffffffffffffffffff1673ffffffffffffffffffffffffffffffffffffffff16815260200190815260200160002060008373ffffffffffffffffffffffffffffffffffffffff1673ffffffffffffffffffffffffffffffffffffffff16815260200190815260200160002060009054906101000a900460ff16905092915050565b60007f01ffc9a7000000000000000000000000000000000000000000000000000000007bffffffffffffffffffffffffffffffffffffffffffffffffffffffff1916827bffffffffffffffffffffffffffffffffffffffffffffffffffffffff1916149050919050565b60008073ffffffffffffffffffffffffffffffffffffffff166002600084815260200190815260200160002060009054906101000a900473ffffffffffffffffffffffffffffffffffffffff1673ffffffffffffffffffffffffffffffffffffffff1614159050919050565b600033905090565b816004600083815260200190815260200160002060006101000a81548173ffffffffffffffffffffffffffffffffffffffff021916908373ffffffffffffffffffffffffffffffffffffffff160217905550808273ffffffffffffffffffffffffffffffffffffffff16610bae836106ae565b73ffffffffffffffffffffffffffffffffffffffff167f8c5be1e5ebec7d5bd14f71427d1e84f3dd0314c0f7b2291e5b200ac8c7c3b92560405160405180910390a45050565b6000610bff82610ac7565b610c3e576040517f08c379a0000000000000000000000000000000000000000000000000000000008152600401610c3590611d2d565b60405180910390fd5b6000610c49836106ae565b90508073ffffffffffffffffffffffffffffffffffffffff168473ffffffffffffffffffffffffffffffffffffffff161480610cb857508373ffffffffffffffffffffffffffffffffffffffff16610ca08461047b565b73ffffffffffffffffffffffffffffffffffffffff16145b80610cc95750610cc881856109c9565b5b91505092915050565b8273ffffffffffffffffffffffffffffffffffffffff16610cf2826106ae565b73ffffffffffffffffffffffffffffffffffffffff1614610d48576040517f08c379a0000000000000000000000000000000000000000000000000000000008152600401610d3f90611ded565b60405180910390fd5b600073ffffffffffffffffffffffffffffffffffffffff168273ffffffffffffffffffffffffffffffffffffffff161415610db8576040517f08c379a0000000000000000000000000000000000000000000000000000000008152600401610daf90611ced565b60405180910390fd5b610dc3838383611489565b610dce600082610b3b565b6001600360008573ffffffffffffffffffffffffffffffffffffffff1673ffffffffffffffffffffffffffffffffffffffff1681526020019081526020016000206000828254610e1e9190611fa8565b925050819055506001600360008473ffffffffffffffffffffffffffffffffffffffff1673ffffffffffffffffffffffffffffffffffffffff1681526020019081526020016000206000828254610e759190611f21565b92505081905550816002600083815260200190815260200160002060006101000a81548173ffffffffffffffffffffffffffffffffffffffff021916908373ffffffffffffffffffffffffffffffffffffffff160217905550808273ffffffffffffffffffffffffffffffffffffffff168473ffffffffffffffffffffffffffffffffffffffff167fddf252ad1be2c89b69c2b068fc378daa952ba7f163c4a11628f55a4df523b3ef60405160405180910390a4505050565b600073ffffffffffffffffffffffffffffffffffffffff168273ffffffffffffffffffffffffffffffffffffffff161415610f9e576040517f08c379a0000000000000000000000000000000000000000000000000000000008152600401610f9590611dad565b60405180910390fd5b610fa781610ac7565b15610fe7576040517f08c379a0000000000000000000000000000000000000000000000000000000008152600401610fde90611ccd565b60405180910390fd5b610ff360008383611489565b6001600360008473ffffffffffffffffffffffffffffffffffffffff1673ffffffffffffffffffffffffffffffffffffffff16815260200190815260200160002060008282546110439190611f21565b92505081905550816002600083815260200190815260200160002060006101000a81548173ffffffffffffffffffffffffffffffffffffffff021916908373ffffffffffffffffffffffffffffffffffffffff160217905550808273ffffffffffffffffffffffffffffffffffffffff16600073ffffffffffffffffffffffffffffffffffffffff167fddf252ad1be2c89b69c2b068fc378daa952ba7f163c4a11628f55a4df523b3ef60405160405180910390a45050565b8173ffffffffffffffffffffffffffffffffffffffff168373ffffffffffffffffffffffffffffffffffffffff16141561116b576040517f08c379a000000000000000000000000000000000000000000000000000000000815260040161116290611d0d565b60405180910390fd5b80600560008573ffffffffffffffffffffffffffffffffffffffff1673ffffffffffffffffffffffffffffffffffffffff16815260200190815260200160002060008473ffffffffffffffffffffffffffffffffffffffff1673ffffffffffffffffffffffffffffffffffffffff16815260200190815260200160002060006101000a81548160ff0219169083151502179055508173ffffffffffffffffffffffffffffffffffffffff168373ffffffffffffffffffffffffffffffffffffffff167f17307eab39ab6107e8899845ad3d59bd9653f200f220920489ca2b5937696c318360405161125c9190611c70565b60405180910390a3505050565b611274848484610cd2565b6112808484848461148e565b6112bf576040517f08c379a00000000000000000000000000000000000000000000000000000000081526004016112b690611cad565b60405180910390fd5b50505050565b606060405180602001604052806000815250905090565b60606000821415611324576040518060400160405280600181526020017f30000000000000000000000000000000000000000000000000000000000000008152509050611484565b600082905060005b6000821461135657808061133f906120f5565b915050600a8261134f9190611f77565b915061132c565b60008167ffffffffffffffff811115611398577f4e487b7100000000000000000000000000000000000000000000000000000000600052604160045260246000fd5b6040519080825280601f01601f1916602001820160405280156113ca5781602001600182028036833780820191505090505b5090505b6000851461147d576001826113e39190611fa8565b9150600a856113f2919061213e565b60306113fe9190611f21565b60f81b81838151811061143a577f4e487b7100000000000000000000000000000000000000000000000000000000600052603260045260246000fd5b60200101907effffffffffffffffffffffffffffffffffffffffffffffffffffffffffffff1916908160001a905350600a856114769190611f77565b94506113ce565b8093505050505b919050565b505050565b60006114af8473ffffffffffffffffffffffffffffffffffffffff16611625565b15611618578373ffffffffffffffffffffffffffffffffffffffff1663150b7a026114d8610b33565b8786866040518563ffffffff1660e01b81526004016114fa9493929190611c24565b602060405180830381600087803b15801561151457600080fd5b505af192505050801561154557506040513d601f19601f8201168201806040525081019061154291906118d9565b60015b6115c8573d8060008114611575576040519150601f19603f3d011682016040523d82523d6000602084013e61157a565b606091505b506000815114156115c0576040517f08c379a00000000000000000000000000000000000000000000000000000000081526004016115b790611cad565b60405180910390fd5b805181602001fd5b63150b7a0260e01b7bffffffffffffffffffffffffffffffffffffffffffffffffffffffff1916817bffffffffffffffffffffffffffffffffffffffffffffffffffffffff19161491505061161d565b600190505b949350505050565b600080823b905060008111915050919050565b600061164b61164684611ead565b611e88565b90508281526020810184848401111561166357600080fd5b61166e848285612050565b509392505050565b6000813590506116858161261c565b92915050565b60008135905061169a81612633565b92915050565b6000813590506116af8161264a565b92915050565b6000815190506116c48161264a565b92915050565b600082601f8301126116db57600080fd5b81356116eb848260208601611638565b91505092915050565b60008135905061170381612661565b92915050565b60006020828403121561171b57600080fd5b600061172984828501611676565b91505092915050565b6000806040838503121561174557600080fd5b600061175385828601611676565b925050602061176485828601611676565b9150509250929050565b60008060006060848603121561178357600080fd5b600061179186828701611676565b93505060206117a286828701611676565b92505060406117b3868287016116f4565b9150509250925092565b600080600080608085870312156117d357600080fd5b60006117e187828801611676565b94505060206117f287828801611676565b9350506040611803878288016116f4565b925050606085013567ffffffffffffffff81111561182057600080fd5b61182c878288016116ca565b91505092959194509250565b6000806040838503121561184b57600080fd5b600061185985828601611676565b925050602061186a8582860161168b565b9150509250929050565b6000806040838503121561188757600080fd5b600061189585828601611676565b92505060206118a6858286016116f4565b9150509250929050565b6000602082840312156118c257600080fd5b60006118d0848285016116a0565b91505092915050565b6000602082840312156118eb57600080fd5b60006118f9848285016116b5565b91505092915050565b60006020828403121561191457600080fd5b6000611922848285016116f4565b91505092915050565b61193481611fdc565b82525050565b61194381611fee565b82525050565b600061195482611ede565b61195e8185611ef4565b935061196e81856020860161205f565b6119778161222b565b840191505092915050565b600061198d82611ee9565b6119978185611f05565b93506119a781856020860161205f565b6119b08161222b565b840191505092915050565b60006119c682611ee9565b6119d08185611f16565b93506119e081856020860161205f565b80840191505092915050565b60006119f9603283611f05565b9150611a048261223c565b604082019050919050565b6000611a1c601c83611f05565b9150611a278261228b565b602082019050919050565b6000611a3f602483611f05565b9150611a4a826122b4565b604082019050919050565b6000611a62601983611f05565b9150611a6d82612303565b602082019050919050565b6000611a85602c83611f05565b9150611a908261232c565b604082019050919050565b6000611aa8603883611f05565b9150611ab38261237b565b604082019050919050565b6000611acb602a83611f05565b9150611ad6826123ca565b604082019050919050565b6000611aee602983611f05565b9150611af982612419565b604082019050919050565b6000611b11602083611f05565b9150611b1c82612468565b602082019050919050565b6000611b34602c83611f05565b9150611b3f82612491565b604082019050919050565b6000611b57602983611f05565b9150611b62826124e0565b604082019050919050565b6000611b7a602f83611f05565b9150611b858261252f565b604082019050919050565b6000611b9d602183611f05565b9150611ba88261257e565b604082019050919050565b6000611bc0603183611f05565b9150611bcb826125cd565b604082019050919050565b611bdf81612046565b82525050565b6000611bf182856119bb565b9150611bfd82846119bb565b91508190509392505050565b6000602082019050611c1e600083018461192b565b92915050565b6000608082019050611c39600083018761192b565b611c46602083018661192b565b611c536040830185611bd6565b8181036060830152611c658184611949565b905095945050505050565b6000602082019050611c85600083018461193a565b92915050565b60006020820190508181036000830152611ca58184611982565b905092915050565b60006020820190508181036000830152611cc6816119ec565b9050919050565b60006020820190508181036000830152611ce681611a0f565b9050919050565b60006020820190508181036000830152611d0681611a32565b9050919050565b60006020820190508181036000830152611d2681611a55565b9050919050565b60006020820190508181036000830152611d4681611a78565b9050919050565b60006020820190508181036000830152611d6681611a9b565b9050919050565b60006020820190508181036000830152611d8681611abe565b9050919050565b60006020820190508181036000830152611da681611ae1565b9050919050565b60006020820190508181036000830152611dc681611b04565b9050919050565b60006020820190508181036000830152611de681611b27565b9050919050565b60006020820190508181036000830152611e0681611b4a565b9050919050565b60006020820190508181036000830152611e2681611b6d565b9050919050565b60006020820190508181036000830152611e4681611b90565b9050919050565b60006020820190508181036000830152611e6681611bb3565b9050919050565b6000602082019050611e826000830184611bd6565b92915050565b6000611e92611ea3565b9050611e9e82826120c4565b919050565b6000604051905090565b600067ffffffffffffffff821115611ec857611ec76121fc565b5b611ed18261222b565b9050602081019050919050565b600081519050919050565b600081519050919050565b600082825260208201905092915050565b600082825260208201905092915050565b600081905092915050565b6000611f2c82612046565b9150611f3783612046565b9250827fffffffffffffffffffffffffffffffffffffffffffffffffffffffffffffffff03821115611f6c57611f6b61216f565b5b828201905092915050565b6000611f8282612046565b9150611f8d83612046565b925082611f9d57611f9c61219e565b5b828204905092915050565b6000611fb382612046565b9150611fbe83612046565b925082821015611fd157611fd061216f565b5b828203905092915050565b6000611fe782612026565b9050919050565b60008115159050919050565b60007fffffffff0000000000000000000000000000000000000000000000000000000082169050919050565b600073ffffffffffffffffffffffffffffffffffffffff82169050919050565b6000819050919050565b82818337600083830152505050565b60005b8381101561207d578082015181840152602081019050612062565b8381111561208c576000848401525b50505050565b600060028204905060018216806120aa57607f821691505b602082108114156120be576120bd6121cd565b5b50919050565b6120cd8261222b565b810181811067ffffffffffffffff821117156120ec576120eb6121fc565b5b80604052505050565b600061210082612046565b91507fffffffffffffffffffffffffffffffffffffffffffffffffffffffffffffffff8214156121335761213261216f565b5b600182019050919050565b600061214982612046565b915061215483612046565b9250826121645761216361219e565b5b828206905092915050565b7f4e487b7100000000000000000000000000000000000000000000000000000000600052601160045260246000fd5b7f4e487b7100000000000000000000000000000000000000000000000000000000600052601260045260246000fd5b7f4e487b7100000000000000000000000000000000000000000000000000000000600052602260045260246000fd5b7f4e487b7100000000000000000000000000000000000000000000000000000000600052604160045260246000fd5b6000601f19601f8301169050919050565b7f4552433732313a207472616e7366657220746f206e6f6e20455243373231526560008201527f63656976657220696d706c656d656e7465720000000000000000000000000000602082015250565b7f4552433732313a20746f6b656e20616c7265616479206d696e74656400000000600082015250565b7f4552433732313a207472616e7366657220746f20746865207a65726f2061646460008201527f7265737300000000000000000000000000000000000000000000000000000000602082015250565b7f4552433732313a20617070726f766520746f2063616c6c657200000000000000600082015250565b7f4552433732313a206f70657261746f7220717565727920666f72206e6f6e657860008201527f697374656e7420746f6b656e0000000000000000000000000000000000000000602082015250565b7f4552433732313a20617070726f76652063616c6c6572206973206e6f74206f7760008201527f6e6572206e6f7220617070726f76656420666f7220616c6c0000000000000000602082015250565b7f4552433732313a2062616c616e636520717565727920666f7220746865207a6560008201527f726f206164647265737300000000000000000000000000000000000000000000602082015250565b7f4552433732313a206f776e657220717565727920666f72206e6f6e657869737460008201527f656e7420746f6b656e0000000000000000000000000000000000000000000000602082015250565b7f4552433732313a206d696e7420746f20746865207a65726f2061646472657373600082015250565b7f4552433732313a20617070726f76656420717565727920666f72206e6f6e657860008201527f697374656e7420746f6b656e0000000000000000000000000000000000000000602082015250565b7f4552433732313a207472616e73666572206f6620746f6b656e2074686174206960008201527f73206e6f74206f776e0000000000000000000000000000000000000000000000602082015250565b7f4552433732314d657461646174613a2055524920717565727920666f72206e6f60008201527f6e6578697374656e7420746f6b656e0000000000000000000000000000000000602082015250565b7f4552433732313a20617070726f76616c20746f2063757272656e74206f776e6560008201527f7200000000000000000000000000000000000000000000000000000000000000602082015250565b7f4552433732313a207472616e736665722063616c6c6572206973206e6f74206f60008201527f776e6572206e6f7220617070726f766564000000000000000000000000000000602082015250565b61262581611fdc565b811461263057600080fd5b50565b61263c81611fee565b811461264757600080fd5b50565b61265381611ffa565b811461265e57600080fd5b50565b61266a81612046565b811461267557600080fd5b5056fea2646970667358221220e6ce74dfab177c0e4fc40245965194068afe1e9ea3aec2a2c318d070d84bb37a64736f6c63430008040033a2646970667358221220fe3cf8b369a1f1c8505ca2c32a4e9fd60c3864d6cd87f47487333d1ac85b1e3964736f6c6343000804003360806040523480156200001157600080fd5b506040518060400160405280600681526020017f4d6f6d6d6f6d00000000000000000000000000000000000000000000000000008152506040518060400160405280600681526020017f4d4f4d4d4f4d0000000000000000000000000000000000000000000000000000815250816000908051906020019062000096929190620000b8565b508060019080519060200190620000af929190620000b8565b505050620001cd565b828054620000c69062000168565b90600052602060002090601f016020900481019282620000ea576000855562000136565b82601f106200010557805160ff191683800117855562000136565b8280016001018555821562000136579182015b828111156200013557825182559160200191906001019062000118565b5b50905062000145919062000149565b5090565b5b80821115620001645760008160009055506001016200014a565b5090565b600060028204905060018216806200018157607f821691505b602082108114156200019857620001976200019e565b5b50919050565b7f4e487b7100000000000000000000000000000000000000000000000000000000600052602260045260246000fd5b6136f280620001dd6000396000f3fe608060405234801561001057600080fd5b50600436106101215760003560e01c80634f6ccce7116100ad57806395dbee2d1161007157806395dbee2d14610340578063a22cb4651461035c578063b88d4fde14610378578063c87b56dd14610394578063e985e9c5146103c457610121565b80634f6ccce7146102625780636352211e1461029257806370a08231146102c257806383451838146102f257806395d89b411461032257610121565b806318160ddd116100f457806318160ddd146101c05780631e9a6950146101de57806323b872dd146101fa5780632f745c591461021657806342842e0e1461024657610121565b806301ffc9a71461012657806306fdde0314610156578063081812fc14610174578063095ea7b3146101a4575b600080fd5b610140600480360381019061013b91906125e9565b6103f4565b60405161014d9190612a58565b60405180910390f35b61015e610406565b60405161016b9190612a73565b60405180910390f35b61018e6004803603810190610189919061263b565b610498565b60405161019b91906129f1565b60405180910390f35b6101be60048036038101906101b991906125ad565b61051d565b005b6101c8610635565b6040516101d59190612cf5565b60405180910390f35b6101f860048036038101906101f391906125ad565b610642565b005b610214600480360381019061020f9190612453565b610698565b005b610230600480360381019061022b91906125ad565b6106f8565b60405161023d9190612cf5565b60405180910390f35b610260600480360381019061025b9190612453565b61079d565b005b61027c6004803603810190610277919061263b565b6107bd565b6040516102899190612cf5565b60405180910390f35b6102ac60048036038101906102a7919061263b565b610854565b6040516102b991906129f1565b60405180910390f35b6102dc60048036038101906102d791906123ee565b610906565b6040516102e99190612cf5565b60405180910390f35b61030c60048036038101906103079190612559565b6109be565b6040516103199190612cf5565b60405180910390f35b61032a6109f5565b6040516103379190612a73565b60405180910390f35b61035a60048036038101906103559190612453565b610a87565b005b6103766004803603810190610371919061251d565b610ae0565b005b610392600480360381019061038d91906124a2565b610af6565b005b6103ae60048036038101906103a9919061263b565b610b58565b6040516103bb9190612a73565b60405180910390f35b6103de60048036038101906103d99190612417565b610b6a565b6040516103eb9190612a58565b60405180910390f35b60006103ff82610bfe565b9050919050565b60606000805461041590612f4b565b80601f016020809104026020016040519081016040528092919081815260200182805461044190612f4b565b801561048e5780601f106104635761010080835404028352916020019161048e565b820191906000526020600020905b81548152906001019060200180831161047157829003601f168201915b5050505050905090565b60006104a382610c78565b6104e2576040517f08c379a00000000000000000000000000000000000000000000000000000000081526004016104d990612c15565b60405180910390fd5b6004600083815260200190815260200160002060009054906101000a900473ffffffffffffffffffffffffffffffffffffffff169050919050565b600061052882610854565b90508073ffffffffffffffffffffffffffffffffffffffff168373ffffffffffffffffffffffffffffffffffffffff161415610599576040517f08c379a000000000000000000000000000000000000000000000000000000000815260040161059090612c75565b60405180910390fd5b8073ffffffffffffffffffffffffffffffffffffffff166105b8610ce4565b73ffffffffffffffffffffffffffffffffffffffff1614806105e757506105e6816105e1610ce4565b610b6a565b5b610626576040517f08c379a000000000000000000000000000000000000000000000000000000000815260040161061d90612b55565b60405180910390fd5b6106308383610cec565b505050565b6000600980549050905090565b61064c8282610da5565b61068b576040517f08c379a000000000000000000000000000000000000000000000000000000000815260040161068290612cd5565b60405180910390fd5b61069481610e83565b5050565b6106a96106a3610ce4565b82610da5565b6106e8576040517f08c379a00000000000000000000000000000000000000000000000000000000081526004016106df90612c95565b60405180910390fd5b6106f3838383610e8f565b505050565b600061070383610906565b8210610744576040517f08c379a000000000000000000000000000000000000000000000000000000000815260040161073b90612a95565b60405180910390fd5b600760008473ffffffffffffffffffffffffffffffffffffffff1673ffffffffffffffffffffffffffffffffffffffff168152602001908152602001600020600083815260200190815260200160002054905092915050565b6107b883838360405180602001604052806000815250610af6565b505050565b60006107c7610635565b8210610808576040517f08c379a00000000000000000000000000000000000000000000000000000000081526004016107ff90612cb5565b60405180910390fd5b60098281548110610842577f4e487b7100000000000000000000000000000000000000000000000000000000600052603260045260246000fd5b90600052602060002001549050919050565b6000806002600084815260200190815260200160002060009054906101000a900473ffffffffffffffffffffffffffffffffffffffff169050600073ffffffffffffffffffffffffffffffffffffffff168173ffffffffffffffffffffffffffffffffffffffff1614156108fd576040517f08c379a00000000000000000000000000000000000000000000000000000000081526004016108f490612b95565b60405180910390fd5b80915050919050565b60008073ffffffffffffffffffffffffffffffffffffffff168273ffffffffffffffffffffffffffffffffffffffff161415610977576040517f08c379a000000000000000000000000000000000000000000000000000000000815260040161096e90612b75565b60405180910390fd5b600360008373ffffffffffffffffffffffffffffffffffffffff1673ffffffffffffffffffffffffffffffffffffffff168152602001908152602001600020549050919050565b6000806109cb600b6110eb565b90506109d7600b6110f9565b6109e1848261110f565b6109eb81846112dd565b8091505092915050565b606060018054610a0490612f4b565b80601f0160208091040260200160405190810160405280929190818152602001828054610a3090612f4b565b8015610a7d5780601f10610a5257610100808354040283529160200191610a7d565b820191906000526020600020905b815481529060010190602001808311610a6057829003601f168201915b5050505050905090565b610a918382610da5565b610ad0576040517f08c379a0000000000000000000000000000000000000000000000000000000008152600401610ac790612cd5565b60405180910390fd5b610adb838383610e8f565b505050565b610af2610aeb610ce4565b8383611351565b5050565b610b07610b01610ce4565b83610da5565b610b46576040517f08c379a0000000000000000000000000000000000000000000000000000000008152600401610b3d90612c95565b60405180910390fd5b610b52848484846114be565b50505050565b6060610b638261151a565b9050919050565b6000600560008473ffffffffffffffffffffffffffffffffffffffff1673ffffffffffffffffffffffffffffffffffffffff16815260200190815260200160002060008373ffffffffffffffffffffffffffffffffffffffff1673ffffffffffffffffffffffffffffffffffffffff16815260200190815260200160002060009054906101000a900460ff16905092915050565b60007f780e9d63000000000000000000000000000000000000000000000000000000007bffffffffffffffffffffffffffffffffffffffffffffffffffffffff1916827bffffffffffffffffffffffffffffffffffffffffffffffffffffffff19161480610c715750610c708261166c565b5b9050919050565b60008073ffffffffffffffffffffffffffffffffffffffff166002600084815260200190815260200160002060009054906101000a900473ffffffffffffffffffffffffffffffffffffffff1673ffffffffffffffffffffffffffffffffffffffff1614159050919050565b600033905090565b816004600083815260200190815260200160002060006101000a81548173ffffffffffffffffffffffffffffffffffffffff021916908373ffffffffffffffffffffffffffffffffffffffff160217905550808273ffffffffffffffffffffffffffffffffffffffff16610d5f83610854565b73ffffffffffffffffffffffffffffffffffffffff167f8c5be1e5ebec7d5bd14f71427d1e84f3dd0314c0f7b2291e5b200ac8c7c3b92560405160405180910390a45050565b6000610db082610c78565b610def576040517f08c379a0000000000000000000000000000000000000000000000000000000008152600401610de690612b35565b60405180910390fd5b6000610dfa83610854565b90508073ffffffffffffffffffffffffffffffffffffffff168473ffffffffffffffffffffffffffffffffffffffff161480610e6957508373ffffffffffffffffffffffffffffffffffffffff16610e5184610498565b73ffffffffffffffffffffffffffffffffffffffff16145b80610e7a5750610e798185610b6a565b5b91505092915050565b610e8c8161174e565b50565b8273ffffffffffffffffffffffffffffffffffffffff16610eaf82610854565b73ffffffffffffffffffffffffffffffffffffffff1614610f05576040517f08c379a0000000000000000000000000000000000000000000000000000000008152600401610efc90612c35565b60405180910390fd5b600073ffffffffffffffffffffffffffffffffffffffff168273ffffffffffffffffffffffffffffffffffffffff161415610f75576040517f08c379a0000000000000000000000000000000000000000000000000000000008152600401610f6c90612af5565b60405180910390fd5b610f808383836117a1565b610f8b600082610cec565b6001600360008573ffffffffffffffffffffffffffffffffffffffff1673ffffffffffffffffffffffffffffffffffffffff1681526020019081526020016000206000828254610fdb9190612e61565b925050819055506001600360008473ffffffffffffffffffffffffffffffffffffffff1673ffffffffffffffffffffffffffffffffffffffff16815260200190815260200160002060008282546110329190612dda565b92505081905550816002600083815260200190815260200160002060006101000a81548173ffffffffffffffffffffffffffffffffffffffff021916908373ffffffffffffffffffffffffffffffffffffffff160217905550808273ffffffffffffffffffffffffffffffffffffffff168473ffffffffffffffffffffffffffffffffffffffff167fddf252ad1be2c89b69c2b068fc378daa952ba7f163c4a11628f55a4df523b3ef60405160405180910390a4505050565b600081600001549050919050565b6001816000016000828254019250508190555050565b600073ffffffffffffffffffffffffffffffffffffffff168273ffffffffffffffffffffffffffffffffffffffff16141561117f576040517f08c379a000000000000000000000000000000000000000000000000000000000815260040161117690612bd5565b60405180910390fd5b61118881610c78565b156111c8576040517f08c379a00000000000000000000000000000000000000000000000000000000081526004016111bf90612ad5565b60405180910390fd5b6111d4600083836117a1565b6001600360008473ffffffffffffffffffffffffffffffffffffffff1673ffffffffffffffffffffffffffffffffffffffff16815260200190815260200160002060008282546112249190612dda565b92505081905550816002600083815260200190815260200160002060006101000a81548173ffffffffffffffffffffffffffffffffffffffff021916908373ffffffffffffffffffffffffffffffffffffffff160217905550808273ffffffffffffffffffffffffffffffffffffffff16600073ffffffffffffffffffffffffffffffffffffffff167fddf252ad1be2c89b69c2b068fc378daa952ba7f163c4a11628f55a4df523b3ef60405160405180910390a45050565b6112e682610c78565b611325576040517f08c379a000000000000000000000000000000000000000000000000000000000815260040161131c90612bb5565b60405180910390fd5b8060066000848152602001908152602001600020908051906020019061134c9291906121d2565b505050565b8173ffffffffffffffffffffffffffffffffffffffff168373ffffffffffffffffffffffffffffffffffffffff1614156113c0576040517f08c379a00000000000000000000000000000000000000000000000000000000081526004016113b790612b15565b60405180910390fd5b80600560008573ffffffffffffffffffffffffffffffffffffffff1673ffffffffffffffffffffffffffffffffffffffff16815260200190815260200160002060008473ffffffffffffffffffffffffffffffffffffffff1673ffffffffffffffffffffffffffffffffffffffff16815260200190815260200160002060006101000a81548160ff0219169083151502179055508173ffffffffffffffffffffffffffffffffffffffff168373ffffffffffffffffffffffffffffffffffffffff167f17307eab39ab6107e8899845ad3d59bd9653f200f220920489ca2b5937696c31836040516114b19190612a58565b60405180910390a3505050565b6114c9848484610e8f565b6114d5848484846117b1565b611514576040517f08c379a000000000000000000000000000000000000000000000000000000000815260040161150b90612ab5565b60405180910390fd5b50505050565b606061152582610c78565b611564576040517f08c379a000000000000000000000000000000000000000000000000000000000815260040161155b90612bf5565b60405180910390fd5b600060066000848152602001908152602001600020805461158490612f4b565b80601f01602080910402602001604051908101604052809291908181526020018280546115b090612f4b565b80156115fd5780601f106115d2576101008083540402835291602001916115fd565b820191906000526020600020905b8154815290600101906020018083116115e057829003601f168201915b50505050509050600061160e611948565b9050600081511415611624578192505050611667565b6000825111156116595780826040516020016116419291906129cd565b60405160208183030381529060405292505050611667565b6116628461195f565b925050505b919050565b60007f80ac58cd000000000000000000000000000000000000000000000000000000007bffffffffffffffffffffffffffffffffffffffffffffffffffffffff1916827bffffffffffffffffffffffffffffffffffffffffffffffffffffffff1916148061173757507f5b5e139f000000000000000000000000000000000000000000000000000000007bffffffffffffffffffffffffffffffffffffffffffffffffffffffff1916827bffffffffffffffffffffffffffffffffffffffffffffffffffffffff1916145b80611747575061174682611a06565b5b9050919050565b61175781611a70565b600060066000838152602001908152602001600020805461177790612f4b565b90501461179e5760066000828152602001908152602001600020600061179d9190612258565b5b50565b6117ac838383611b81565b505050565b60006117d28473ffffffffffffffffffffffffffffffffffffffff16611c95565b1561193b578373ffffffffffffffffffffffffffffffffffffffff1663150b7a026117fb610ce4565b8786866040518563ffffffff1660e01b815260040161181d9493929190612a0c565b602060405180830381600087803b15801561183757600080fd5b505af192505050801561186857506040513d601f19601f820116820180604052508101906118659190612612565b60015b6118eb573d8060008114611898576040519150601f19603f3d011682016040523d82523d6000602084013e61189d565b606091505b506000815114156118e3576040517f08c379a00000000000000000000000000000000000000000000000000000000081526004016118da90612ab5565b60405180910390fd5b805181602001fd5b63150b7a0260e01b7bffffffffffffffffffffffffffffffffffffffffffffffffffffffff1916817bffffffffffffffffffffffffffffffffffffffffffffffffffffffff191614915050611940565b600190505b949350505050565b606060405180602001604052806000815250905090565b606061196a82610c78565b6119a9576040517f08c379a00000000000000000000000000000000000000000000000000000000081526004016119a090612c55565b60405180910390fd5b60006119b3611948565b905060008151116119d357604051806020016040528060008152506119fe565b806119dd84611ca8565b6040516020016119ee9291906129cd565b6040516020818303038152906040525b915050919050565b60007f01ffc9a7000000000000000000000000000000000000000000000000000000007bffffffffffffffffffffffffffffffffffffffffffffffffffffffff1916827bffffffffffffffffffffffffffffffffffffffffffffffffffffffff1916149050919050565b6000611a7b82610854565b9050611a89816000846117a1565b611a94600083610cec565b6001600360008373ffffffffffffffffffffffffffffffffffffffff1673ffffffffffffffffffffffffffffffffffffffff1681526020019081526020016000206000828254611ae49190612e61565b925050819055506002600083815260200190815260200160002060006101000a81549073ffffffffffffffffffffffffffffffffffffffff021916905581600073ffffffffffffffffffffffffffffffffffffffff168273ffffffffffffffffffffffffffffffffffffffff167fddf252ad1be2c89b69c2b068fc378daa952ba7f163c4a11628f55a4df523b3ef60405160405180910390a45050565b611b8c838383611e55565b600073ffffffffffffffffffffffffffffffffffffffff168373ffffffffffffffffffffffffffffffffffffffff161415611bcf57611bca81611e5a565b611c0e565b8173ffffffffffffffffffffffffffffffffffffffff168373ffffffffffffffffffffffffffffffffffffffff1614611c0d57611c0c8382611ea3565b5b5b600073ffffffffffffffffffffffffffffffffffffffff168273ffffffffffffffffffffffffffffffffffffffff161415611c5157611c4c81612010565b611c90565b8273ffffffffffffffffffffffffffffffffffffffff168273ffffffffffffffffffffffffffffffffffffffff1614611c8f57611c8e8282612153565b5b5b505050565b600080823b905060008111915050919050565b60606000821415611cf0576040518060400160405280600181526020017f30000000000000000000000000000000000000000000000000000000000000008152509050611e50565b600082905060005b60008214611d22578080611d0b90612fae565b915050600a82611d1b9190612e30565b9150611cf8565b60008167ffffffffffffffff811115611d64577f4e487b7100000000000000000000000000000000000000000000000000000000600052604160045260246000fd5b6040519080825280601f01601f191660200182016040528015611d965781602001600182028036833780820191505090505b5090505b60008514611e4957600182611daf9190612e61565b9150600a85611dbe9190612ff7565b6030611dca9190612dda565b60f81b818381518110611e06577f4e487b7100000000000000000000000000000000000000000000000000000000600052603260045260246000fd5b60200101907effffffffffffffffffffffffffffffffffffffffffffffffffffffffffffff1916908160001a905350600a85611e429190612e30565b9450611d9a565b8093505050505b919050565b505050565b600980549050600a600083815260200190815260200160002081905550600981908060018154018082558091505060019003906000526020600020016000909190919091505550565b60006001611eb084610906565b611eba9190612e61565b9050600060086000848152602001908152602001600020549050818114611f9f576000600760008673ffffffffffffffffffffffffffffffffffffffff1673ffffffffffffffffffffffffffffffffffffffff168152602001908152602001600020600084815260200190815260200160002054905080600760008773ffffffffffffffffffffffffffffffffffffffff1673ffffffffffffffffffffffffffffffffffffffff168152602001908152602001600020600084815260200190815260200160002081905550816008600083815260200190815260200160002081905550505b6008600084815260200190815260200160002060009055600760008573ffffffffffffffffffffffffffffffffffffffff1673ffffffffffffffffffffffffffffffffffffffff16815260200190815260200160002060008381526020019081526020016000206000905550505050565b600060016009805490506120249190612e61565b90506000600a600084815260200190815260200160002054905060006009838154811061207a577f4e487b7100000000000000000000000000000000000000000000000000000000600052603260045260246000fd5b9060005260206000200154905080600983815481106120c2577f4e487b7100000000000000000000000000000000000000000000000000000000600052603260045260246000fd5b906000526020600020018190555081600a600083815260200190815260200160002081905550600a6000858152602001908152602001600020600090556009805480612137577f4e487b7100000000000000000000000000000000000000000000000000000000600052603160045260246000fd5b6001900381819060005260206000200160009055905550505050565b600061215e83610906565b905081600760008573ffffffffffffffffffffffffffffffffffffffff1673ffffffffffffffffffffffffffffffffffffffff168152602001908152602001600020600083815260200190815260200160002081905550806008600084815260200190815260200160002081905550505050565b8280546121de90612f4b565b90600052602060002090601f0160209004810192826122005760008555612247565b82601f1061221957805160ff1916838001178555612247565b82800160010185558215612247579182015b8281111561224657825182559160200191906001019061222b565b5b5090506122549190612298565b5090565b50805461226490612f4b565b6000825580601f106122765750612295565b601f0160209004906000526020600020908101906122949190612298565b5b50565b5b808211156122b1576000816000905550600101612299565b5090565b60006122c86122c384612d35565b612d10565b9050828152602081018484840111156122e057600080fd5b6122eb848285612f09565b509392505050565b600061230661230184612d66565b612d10565b90508281526020810184848401111561231e57600080fd5b612329848285612f09565b509392505050565b60008135905061234081613660565b92915050565b60008135905061235581613677565b92915050565b60008135905061236a8161368e565b92915050565b60008151905061237f8161368e565b92915050565b600082601f83011261239657600080fd5b81356123a68482602086016122b5565b91505092915050565b600082601f8301126123c057600080fd5b81356123d08482602086016122f3565b91505092915050565b6000813590506123e8816136a5565b92915050565b60006020828403121561240057600080fd5b600061240e84828501612331565b91505092915050565b6000806040838503121561242a57600080fd5b600061243885828601612331565b925050602061244985828601612331565b9150509250929050565b60008060006060848603121561246857600080fd5b600061247686828701612331565b935050602061248786828701612331565b9250506040612498868287016123d9565b9150509250925092565b600080600080608085870312156124b857600080fd5b60006124c687828801612331565b94505060206124d787828801612331565b93505060406124e8878288016123d9565b925050606085013567ffffffffffffffff81111561250557600080fd5b61251187828801612385565b91505092959194509250565b6000806040838503121561253057600080fd5b600061253e85828601612331565b925050602061254f85828601612346565b9150509250929050565b6000806040838503121561256c57600080fd5b600061257a85828601612331565b925050602083013567ffffffffffffffff81111561259757600080fd5b6125a3858286016123af565b9150509250929050565b600080604083850312156125c057600080fd5b60006125ce85828601612331565b92505060206125df858286016123d9565b9150509250929050565b6000602082840312156125fb57600080fd5b60006126098482850161235b565b91505092915050565b60006020828403121561262457600080fd5b600061263284828501612370565b91505092915050565b60006020828403121561264d57600080fd5b600061265b848285016123d9565b91505092915050565b61266d81612e95565b82525050565b61267c81612ea7565b82525050565b600061268d82612d97565b6126978185612dad565b93506126a7818560208601612f18565b6126b0816130e4565b840191505092915050565b60006126c682612da2565b6126d08185612dbe565b93506126e0818560208601612f18565b6126e9816130e4565b840191505092915050565b60006126ff82612da2565b6127098185612dcf565b9350612719818560208601612f18565b80840191505092915050565b6000612732602b83612dbe565b915061273d826130f5565b604082019050919050565b6000612755603283612dbe565b915061276082613144565b604082019050919050565b6000612778601c83612dbe565b915061278382613193565b602082019050919050565b600061279b602483612dbe565b91506127a6826131bc565b604082019050919050565b60006127be601983612dbe565b91506127c98261320b565b602082019050919050565b60006127e1602c83612dbe565b91506127ec82613234565b604082019050919050565b6000612804603883612dbe565b915061280f82613283565b604082019050919050565b6000612827602a83612dbe565b9150612832826132d2565b604082019050919050565b600061284a602983612dbe565b915061285582613321565b604082019050919050565b600061286d602e83612dbe565b915061287882613370565b604082019050919050565b6000612890602083612dbe565b915061289b826133bf565b602082019050919050565b60006128b3603183612dbe565b91506128be826133e8565b604082019050919050565b60006128d6602c83612dbe565b91506128e182613437565b604082019050919050565b60006128f9602983612dbe565b915061290482613486565b604082019050919050565b600061291c602f83612dbe565b9150612927826134d5565b604082019050919050565b600061293f602183612dbe565b915061294a82613524565b604082019050919050565b6000612962603183612dbe565b915061296d82613573565b604082019050919050565b6000612985602c83612dbe565b9150612990826135c2565b604082019050919050565b60006129a8602883612dbe565b91506129b382613611565b604082019050919050565b6129c781612eff565b82525050565b60006129d982856126f4565b91506129e582846126f4565b91508190509392505050565b6000602082019050612a066000830184612664565b92915050565b6000608082019050612a216000830187612664565b612a2e6020830186612664565b612a3b60408301856129be565b8181036060830152612a4d8184612682565b905095945050505050565b6000602082019050612a6d6000830184612673565b92915050565b60006020820190508181036000830152612a8d81846126bb565b905092915050565b60006020820190508181036000830152612aae81612725565b9050919050565b60006020820190508181036000830152612ace81612748565b9050919050565b60006020820190508181036000830152612aee8161276b565b9050919050565b60006020820190508181036000830152612b0e8161278e565b9050919050565b60006020820190508181036000830152612b2e816127b1565b9050919050565b60006020820190508181036000830152612b4e816127d4565b9050919050565b60006020820190508181036000830152612b6e816127f7565b9050919050565b60006020820190508181036000830152612b8e8161281a565b9050919050565b60006020820190508181036000830152612bae8161283d565b9050919050565b60006020820190508181036000830152612bce81612860565b9050919050565b60006020820190508181036000830152612bee81612883565b9050919050565b60006020820190508181036000830152612c0e816128a6565b9050919050565b60006020820190508181036000830152612c2e816128c9565b9050919050565b60006020820190508181036000830152612c4e816128ec565b9050919050565b60006020820190508181036000830152612c6e8161290f565b9050919050565b60006020820190508181036000830152612c8e81612932565b9050919050565b60006020820190508181036000830152612cae81612955565b9050919050565b60006020820190508181036000830152612cce81612978565b9050919050565b60006020820190508181036000830152612cee8161299b565b9050919050565b6000602082019050612d0a60008301846129be565b92915050565b6000612d1a612d2b565b9050612d268282612f7d565b919050565b6000604051905090565b600067ffffffffffffffff821115612d5057612d4f6130b5565b5b612d59826130e4565b9050602081019050919050565b600067ffffffffffffffff821115612d8157612d806130b5565b5b612d8a826130e4565b9050602081019050919050565b600081519050919050565b600081519050919050565b600082825260208201905092915050565b600082825260208201905092915050565b600081905092915050565b6000612de582612eff565b9150612df083612eff565b9250827fffffffffffffffffffffffffffffffffffffffffffffffffffffffffffffffff03821115612e2557612e24613028565b5b828201905092915050565b6000612e3b82612eff565b9150612e4683612eff565b925082612e5657612e55613057565b5b828204905092915050565b6000612e6c82612eff565b9150612e7783612eff565b925082821015612e8a57612e89613028565b5b828203905092915050565b6000612ea082612edf565b9050919050565b60008115159050919050565b60007fffffffff0000000000000000000000000000000000000000000000000000000082169050919050565b600073ffffffffffffffffffffffffffffffffffffffff82169050919050565b6000819050919050565b82818337600083830152505050565b60005b83811015612f36578082015181840152602081019050612f1b565b83811115612f45576000848401525b50505050565b60006002820490506001821680612f6357607f821691505b60208210811415612f7757612f76613086565b5b50919050565b612f86826130e4565b810181811067ffffffffffffffff82111715612fa557612fa46130b5565b5b80604052505050565b6000612fb982612eff565b91507fffffffffffffffffffffffffffffffffffffffffffffffffffffffffffffffff821415612fec57612feb613028565b5b600182019050919050565b600061300282612eff565b915061300d83612eff565b92508261301d5761301c613057565b5b828206905092915050565b7f4e487b7100000000000000000000000000000000000000000000000000000000600052601160045260246000fd5b7f4e487b7100000000000000000000000000000000000000000000000000000000600052601260045260246000fd5b7f4e487b7100000000000000000000000000000000000000000000000000000000600052602260045260246000fd5b7f4e487b7100000000000000000000000000000000000000000000000000000000600052604160045260246000fd5b6000601f19601f8301169050919050565b7f455243373231456e756d657261626c653a206f776e657220696e646578206f7560008201527f74206f6620626f756e6473000000000000000000000000000000000000000000602082015250565b7f4552433732313a207472616e7366657220746f206e6f6e20455243373231526560008201527f63656976657220696d706c656d656e7465720000000000000000000000000000602082015250565b7f4552433732313a20746f6b656e20616c7265616479206d696e74656400000000600082015250565b7f4552433732313a207472616e7366657220746f20746865207a65726f2061646460008201527f7265737300000000000000000000000000000000000000000000000000000000602082015250565b7f4552433732313a20617070726f766520746f2063616c6c657200000000000000600082015250565b7f4552433732313a206f70657261746f7220717565727920666f72206e6f6e657860008201527f697374656e7420746f6b656e0000000000000000000000000000000000000000602082015250565b7f4552433732313a20617070726f76652063616c6c6572206973206e6f74206f7760008201527f6e6572206e6f7220617070726f76656420666f7220616c6c0000000000000000602082015250565b7f4552433732313a2062616c616e636520717565727920666f7220746865207a6560008201527f726f206164647265737300000000000000000000000000000000000000000000602082015250565b7f4552433732313a206f776e657220717565727920666f72206e6f6e657869737460008201527f656e7420746f6b656e0000000000000000000000000000000000000000000000602082015250565b7f45524337323155524953746f726167653a2055524920736574206f66206e6f6e60008201527f6578697374656e7420746f6b656e000000000000000000000000000000000000602082015250565b7f4552433732313a206d696e7420746f20746865207a65726f2061646472657373600082015250565b7f45524337323155524953746f726167653a2055524920717565727920666f722060008201527f6e6f6e6578697374656e7420746f6b656e000000000000000000000000000000602082015250565b7f4552433732313a20617070726f76656420717565727920666f72206e6f6e657860008201527f697374656e7420746f6b656e0000000000000000000000000000000000000000602082015250565b7f4552433732313a207472616e73666572206f6620746f6b656e2074686174206960008201527f73206e6f74206f776e0000000000000000000000000000000000000000000000602082015250565b7f4552433732314d657461646174613a2055524920717565727920666f72206e6f60008201527f6e6578697374656e7420746f6b656e0000000000000000000000000000000000602082015250565b7f4552433732313a20617070726f76616c20746f2063757272656e74206f776e6560008201527f7200000000000000000000000000000000000000000000000000000000000000602082015250565b7f4552433732313a207472616e736665722063616c6c6572206973206e6f74206f60008201527f776e6572206e6f7220617070726f766564000000000000000000000000000000602082015250565b7f455243373231456e756d657261626c653a20676c6f62616c20696e646578206f60008201527f7574206f6620626f756e64730000000000000000000000000000000000000000602082015250565b7f43616c6c6572206973206e6f74206f776e6572206f662074686973204d6f6d6d60008201527f6f6d20746f6b656e000000000000000000000000000000000000000000000000602082015250565b61366981612e95565b811461367457600080fd5b50565b61368081612ea7565b811461368b57600080fd5b50565b61369781612eb3565b81146136a257600080fd5b50565b6136ae81612eff565b81146136b957600080fd5b5056fea26469706673582212200332b6a5d04e93a48fb445de34fb5c04838e84737f00d1cb5596bfa4af09a5a264736f6c63430008040033",
  "linkReferences": {},
  "deployedLinkReferences": {}
}